{
    "dynamicAccountOverwriteEmpty_d0g0v0_Constantinople" : {
        "_info" : {
            "comment" : "EXTCODEHASH of empty account, then CREATE or CREATE2 over it, EXTCODEHASH again. This should check that code hash cache is correctly updated during the transaction.",
            "filling-rpc-server" : "evm version 1.14.1-unstable-4bdbaab4-20240428",
            "filling-tool-version" : "retesteth-0.3.2-cancun+commit.dec67d06.Linux.g++",
            "generatedTestHash" : "4a5b8c0060cd65715c31b43518a0b2907f2db3d74e2850c69e743987487c42ee",
            "lllcversion" : "Version: 0.5.14-develop.2023.7.11+commit.c58ab2c6.mod.Linux.g++",
            "solidity" : "Version: 0.8.21+commit.d9974bed.Linux.g++",
            "source" : "LegacyTests/src/LegacyTests/Constantinople/BlockchainTestsFiller/GeneralStateTests/stExtCodeHash/dynamicAccountOverwriteEmpty_d0g0v0Filler.json",
            "sourceHash" : "d97d43150606e61ce155a5ca7e91626e2472d2cb57fe0975224f81f8958be3a3"
        },
        "blocks" : [
            {
                "blockHeader" : {
                    "bloom" : "0x00000000000000000000000000000000000000000000000000000000000000000000000000000000000000000000000000000000000000000000000000000000000000000000000000000000000000000000000000000000000000000000000000000000000000000000000000000000000000000000000000000000000000000000000000000000000000000000000000000000000000000000000000000000000000000000000000000000000000000000000000000000000000000000000000000000000000000000000000000000000000000000000000000000000000000000000000000000000000000000000000000000000000000000000000000000",
                    "coinbase" : "0x2adc25665018aa1fe0e6bc666dac8fc2697ff9ba",
                    "difficulty" : "0x020000",
                    "extraData" : "0x42",
                    "gasLimit" : "0x0f0f4240",
                    "gasUsed" : "0x01026137",
                    "hash" : "0x9e09999d903c4a85ed19cc6797b1ef3b3611c4ac2df9a9aa95281ed5ada63219",
                    "mixHash" : "0x0000000000000000000000000000000000000000000000000000000000000000",
                    "nonce" : "0x0000000000000000",
                    "number" : "0x01",
                    "parentHash" : "0x2136dc129efe45a65855b0e2cae72848051ece1e6a78ced974685f2643ef5ac1",
                    "receiptTrie" : "0x83c1dae692b6abef654c628ff9f7199c902536af04c6d358f8b8a6a830b4e6fc",
                    "stateRoot" : "0xf77a3df5d193f664de53d81b68b69aa758ac1b328b510db64be73b610862da9a",
                    "timestamp" : "0x03e8",
                    "transactionsTrie" : "0x079b7d18a65bff3fc7f84e3682561fc7abd60c2d4f70d777f5965516e284c70d",
                    "uncleHash" : "0x1dcc4de8dec75d7aab85b567b6ccd41ad312451b948a7413f0a142fd40d49347"
                },
                "blocknumber" : "1",
                "chainname" : "default",
                "rlp" : "0xf90263f901faa02136dc129efe45a65855b0e2cae72848051ece1e6a78ced974685f2643ef5ac1a01dcc4de8dec75d7aab85b567b6ccd41ad312451b948a7413f0a142fd40d49347942adc25665018aa1fe0e6bc666dac8fc2697ff9baa0f77a3df5d193f664de53d81b68b69aa758ac1b328b510db64be73b610862da9aa0079b7d18a65bff3fc7f84e3682561fc7abd60c2d4f70d777f5965516e284c70da083c1dae692b6abef654c628ff9f7199c902536af04c6d358f8b8a6a830b4e6fcb90100000000000000000000000000000000000000000000000000000000000000000000000000000000000000000000000000000000000000000000000000000000000000000000000000000000000000000000000000000000000000000000000000000000000000000000000000000000000000000000000000000000000000000000000000000000000000000000000000000000000000000000000000000000000000000000000000000000000000000000000000000000000000000000000000000000000000000000000000000000000000000000000000000000000000000000000000000000000000000000000000000000000000000000000000000000008302000001840f0f424084010261378203e842a00000000000000000000000000000000000000000000000000000000000000000880000000000000000f863f86180018401061a8094095e7baea6a6c7c4c2dfeb977efac326af552d8701801ca0ae29a79903b187c6d075320f9834a330b5134244c7fb0476eba58cd87b175fd6a027a8f85308f5f08f4e2f6b2e23d9dcfd740108f8f96517e50c9e1dc86288a673c0",
                "transactions" : [
                    {
                        "data" : "0x",
                        "gasLimit" : "0x01061a80",
                        "gasPrice" : "0x01",
                        "nonce" : "0x00",
                        "r" : "0xae29a79903b187c6d075320f9834a330b5134244c7fb0476eba58cd87b175fd6",
                        "s" : "0x27a8f85308f5f08f4e2f6b2e23d9dcfd740108f8f96517e50c9e1dc86288a673",
                        "to" : "0x095e7baea6a6c7c4c2dfeb977efac326af552d87",
                        "v" : "0x1c",
                        "value" : "0x01"
                    }
                ],
                "uncleHeaders" : [
                ]
            }
        ],
        "genesisBlockHeader" : {
            "bloom" : "0x00000000000000000000000000000000000000000000000000000000000000000000000000000000000000000000000000000000000000000000000000000000000000000000000000000000000000000000000000000000000000000000000000000000000000000000000000000000000000000000000000000000000000000000000000000000000000000000000000000000000000000000000000000000000000000000000000000000000000000000000000000000000000000000000000000000000000000000000000000000000000000000000000000000000000000000000000000000000000000000000000000000000000000000000000000000",
            "coinbase" : "0x2adc25665018aa1fe0e6bc666dac8fc2697ff9ba",
            "difficulty" : "0x020000",
            "extraData" : "0x42",
            "gasLimit" : "0x0f0f4240",
            "gasUsed" : "0x00",
            "hash" : "0x2136dc129efe45a65855b0e2cae72848051ece1e6a78ced974685f2643ef5ac1",
            "mixHash" : "0x0000000000000000000000000000000000000000000000000000000000000000",
            "nonce" : "0x0000000000000000",
            "number" : "0x00",
            "parentHash" : "0x0000000000000000000000000000000000000000000000000000000000000000",
            "receiptTrie" : "0x56e81f171bcc55a6ff8345e692c0f86e5b48e01b996cadc001622fb5e363b421",
            "stateRoot" : "0x7819983a9418caeff976319af2b875192767faa92c38f2b81d8c0cbaf2c9a43a",
            "timestamp" : "0x03b6",
            "transactionsTrie" : "0x56e81f171bcc55a6ff8345e692c0f86e5b48e01b996cadc001622fb5e363b421",
            "uncleHash" : "0x1dcc4de8dec75d7aab85b567b6ccd41ad312451b948a7413f0a142fd40d49347"
        },
        "genesisRLP" : "0xf901fbf901f6a00000000000000000000000000000000000000000000000000000000000000000a01dcc4de8dec75d7aab85b567b6ccd41ad312451b948a7413f0a142fd40d49347942adc25665018aa1fe0e6bc666dac8fc2697ff9baa07819983a9418caeff976319af2b875192767faa92c38f2b81d8c0cbaf2c9a43aa056e81f171bcc55a6ff8345e692c0f86e5b48e01b996cadc001622fb5e363b421a056e81f171bcc55a6ff8345e692c0f86e5b48e01b996cadc001622fb5e363b421b90100000000000000000000000000000000000000000000000000000000000000000000000000000000000000000000000000000000000000000000000000000000000000000000000000000000000000000000000000000000000000000000000000000000000000000000000000000000000000000000000000000000000000000000000000000000000000000000000000000000000000000000000000000000000000000000000000000000000000000000000000000000000000000000000000000000000000000000000000000000000000000000000000000000000000000000000000000000000000000000000000000000000000000000000000000000008302000080840f0f4240808203b642a00000000000000000000000000000000000000000000000000000000000000000880000000000000000c0c0",
        "lastblockhash" : "0x9e09999d903c4a85ed19cc6797b1ef3b3611c4ac2df9a9aa95281ed5ada63219",
        "network" : "Constantinople",
        "postState" : {
            "0x095e7baea6a6c7c4c2dfeb977efac326af552d87" : {
                "balance" : "0x0de0b6b3a7640001",
                "code" : "0x73e713449c212d891357cc2966816b1d528cfb59e03f60005573e713449c212d891357cc2966816b1d528cfb59e03b60015560206000600073e713449c212d891357cc2966816b1d528cfb59e03c6000516002556000600060006000600073e713449c212d891357cc2966816b1d528cfb59e061c350f26003556000603c8061010760003960006000f55073e713449c212d891357cc2966816b1d528cfb59e03f60045573e713449c212d891357cc2966816b1d528cfb59e03b60055560206000600073e713449c212d891357cc2966816b1d528cfb59e03c6000516006556000600060006000600073e713449c212d891357cc2966816b1d528cfb59e061c350f260075500fe73dddddddd000000000000000000000000000000003b6000526000516000602073dddddddd000000000000000000000000000000003c6000516020f3",
                "nonce" : "0x01",
                "storage" : {
                    "0x03" : "0x01",
                    "0x07" : "0x01"
                }
            },
            "0x2adc25665018aa1fe0e6bc666dac8fc2697ff9ba" : {
                "balance" : "0x1bc16d674fca6137",
                "code" : "0x",
                "nonce" : "0x00",
                "storage" : {
                }
            },
            "0xb5808cabe58af0c35d24fc31c2bf302e2723d0dd" : {
                "balance" : "0x0de0b6b3a6619ec8",
                "code" : "0x",
                "nonce" : "0x01",
                "storage" : {
                }
            },
            "0xdddddddd00000000000000000000000000000000" : {
                "balance" : "0x0de0b6b3a7640000",
                "code" : "0x600b605055",
                "nonce" : "0x00",
                "storage" : {
                }
            },
            "0xe713449c212d891357cc2966816b1d528cfb59e0" : {
                "balance" : "0x00",
                "code" : "0x",
                "nonce" : "0x00",
                "storage" : {
                    "0x01" : "0x01"
                }
            }
        },
        "pre" : {
            "0x095e7baea6a6c7c4c2dfeb977efac326af552d87" : {
                "balance" : "0x0de0b6b3a7640000",
                "code" : "0x73e713449c212d891357cc2966816b1d528cfb59e03f60005573e713449c212d891357cc2966816b1d528cfb59e03b60015560206000600073e713449c212d891357cc2966816b1d528cfb59e03c6000516002556000600060006000600073e713449c212d891357cc2966816b1d528cfb59e061c350f26003556000603c8061010760003960006000f55073e713449c212d891357cc2966816b1d528cfb59e03f60045573e713449c212d891357cc2966816b1d528cfb59e03b60055560206000600073e713449c212d891357cc2966816b1d528cfb59e03c6000516006556000600060006000600073e713449c212d891357cc2966816b1d528cfb59e061c350f260075500fe73dddddddd000000000000000000000000000000003b6000526000516000602073dddddddd000000000000000000000000000000003c6000516020f3",
                "nonce" : "0x00",
                "storage" : {
                }
            },
            "0xb5808cabe58af0c35d24fc31c2bf302e2723d0dd" : {
                "balance" : "0x0de0b6b3a7640000",
                "code" : "0x",
                "nonce" : "0x00",
                "storage" : {
                }
            },
            "0xdddddddd00000000000000000000000000000000" : {
                "balance" : "0x0de0b6b3a7640000",
                "code" : "0x600b605055",
                "nonce" : "0x00",
                "storage" : {
                }
            },
            "0xe713449c212d891357cc2966816b1d528cfb59e0" : {
                "balance" : "0x00",
                "code" : "0x",
                "nonce" : "0x00",
                "storage" : {
                    "0x01" : "0x01"
                }
            }
        },
        "sealEngine" : "NoProof"
    },
    "dynamicAccountOverwriteEmpty_d0g0v0_ConstantinopleFix" : {
        "_info" : {
            "comment" : "EXTCODEHASH of empty account, then CREATE or CREATE2 over it, EXTCODEHASH again. This should check that code hash cache is correctly updated during the transaction.",
            "filling-rpc-server" : "evm version 1.14.1-unstable-4bdbaab4-20240428",
            "filling-tool-version" : "retesteth-0.3.2-cancun+commit.dec67d06.Linux.g++",
            "generatedTestHash" : "8fc7e86a60e9a7d3702c21cc6a2caceedfe0b3da3d9c089d3de5aae88ed72523",
            "lllcversion" : "Version: 0.5.14-develop.2023.7.11+commit.c58ab2c6.mod.Linux.g++",
            "solidity" : "Version: 0.8.21+commit.d9974bed.Linux.g++",
            "source" : "LegacyTests/src/LegacyTests/Constantinople/BlockchainTestsFiller/GeneralStateTests/stExtCodeHash/dynamicAccountOverwriteEmpty_d0g0v0Filler.json",
            "sourceHash" : "d97d43150606e61ce155a5ca7e91626e2472d2cb57fe0975224f81f8958be3a3"
        },
        "blocks" : [
            {
                "blockHeader" : {
                    "bloom" : "0x00000000000000000000000000000000000000000000000000000000000000000000000000000000000000000000000000000000000000000000000000000000000000000000000000000000000000000000000000000000000000000000000000000000000000000000000000000000000000000000000000000000000000000000000000000000000000000000000000000000000000000000000000000000000000000000000000000000000000000000000000000000000000000000000000000000000000000000000000000000000000000000000000000000000000000000000000000000000000000000000000000000000000000000000000000000",
                    "coinbase" : "0x2adc25665018aa1fe0e6bc666dac8fc2697ff9ba",
                    "difficulty" : "0x020000",
                    "extraData" : "0x42",
                    "gasLimit" : "0x0f0f4240",
                    "gasUsed" : "0x01029a58",
                    "hash" : "0x7fc4bcd11c631128b86f7816d03660c12d1744802060e9ed7666aa8f3812df43",
                    "mixHash" : "0x0000000000000000000000000000000000000000000000000000000000000000",
                    "nonce" : "0x0000000000000000",
                    "number" : "0x01",
                    "parentHash" : "0x2136dc129efe45a65855b0e2cae72848051ece1e6a78ced974685f2643ef5ac1",
                    "receiptTrie" : "0x2f52d938ea4e7d50ee7fd70d409308f4bc81d7898e47959ba34f17640b5e155a",
                    "stateRoot" : "0xa6d002105a465831d93a0223e85f988cd60e409e015b5ee0950927babe0a2d9e",
                    "timestamp" : "0x03e8",
                    "transactionsTrie" : "0x079b7d18a65bff3fc7f84e3682561fc7abd60c2d4f70d777f5965516e284c70d",
                    "uncleHash" : "0x1dcc4de8dec75d7aab85b567b6ccd41ad312451b948a7413f0a142fd40d49347"
                },
                "blocknumber" : "1",
                "chainname" : "default",
                "rlp" : "0xf90263f901faa02136dc129efe45a65855b0e2cae72848051ece1e6a78ced974685f2643ef5ac1a01dcc4de8dec75d7aab85b567b6ccd41ad312451b948a7413f0a142fd40d49347942adc25665018aa1fe0e6bc666dac8fc2697ff9baa0a6d002105a465831d93a0223e85f988cd60e409e015b5ee0950927babe0a2d9ea0079b7d18a65bff3fc7f84e3682561fc7abd60c2d4f70d777f5965516e284c70da02f52d938ea4e7d50ee7fd70d409308f4bc81d7898e47959ba34f17640b5e155ab90100000000000000000000000000000000000000000000000000000000000000000000000000000000000000000000000000000000000000000000000000000000000000000000000000000000000000000000000000000000000000000000000000000000000000000000000000000000000000000000000000000000000000000000000000000000000000000000000000000000000000000000000000000000000000000000000000000000000000000000000000000000000000000000000000000000000000000000000000000000000000000000000000000000000000000000000000000000000000000000000000000000000000000000000000000000008302000001840f0f42408401029a588203e842a00000000000000000000000000000000000000000000000000000000000000000880000000000000000f863f86180018401061a8094095e7baea6a6c7c4c2dfeb977efac326af552d8701801ca0ae29a79903b187c6d075320f9834a330b5134244c7fb0476eba58cd87b175fd6a027a8f85308f5f08f4e2f6b2e23d9dcfd740108f8f96517e50c9e1dc86288a673c0",
                "transactions" : [
                    {
                        "data" : "0x",
                        "gasLimit" : "0x01061a80",
                        "gasPrice" : "0x01",
                        "nonce" : "0x00",
                        "r" : "0xae29a79903b187c6d075320f9834a330b5134244c7fb0476eba58cd87b175fd6",
                        "s" : "0x27a8f85308f5f08f4e2f6b2e23d9dcfd740108f8f96517e50c9e1dc86288a673",
                        "to" : "0x095e7baea6a6c7c4c2dfeb977efac326af552d87",
                        "v" : "0x1c",
                        "value" : "0x01"
                    }
                ],
                "uncleHeaders" : [
                ]
            }
        ],
        "genesisBlockHeader" : {
            "bloom" : "0x00000000000000000000000000000000000000000000000000000000000000000000000000000000000000000000000000000000000000000000000000000000000000000000000000000000000000000000000000000000000000000000000000000000000000000000000000000000000000000000000000000000000000000000000000000000000000000000000000000000000000000000000000000000000000000000000000000000000000000000000000000000000000000000000000000000000000000000000000000000000000000000000000000000000000000000000000000000000000000000000000000000000000000000000000000000",
            "coinbase" : "0x2adc25665018aa1fe0e6bc666dac8fc2697ff9ba",
            "difficulty" : "0x020000",
            "extraData" : "0x42",
            "gasLimit" : "0x0f0f4240",
            "gasUsed" : "0x00",
            "hash" : "0x2136dc129efe45a65855b0e2cae72848051ece1e6a78ced974685f2643ef5ac1",
            "mixHash" : "0x0000000000000000000000000000000000000000000000000000000000000000",
            "nonce" : "0x0000000000000000",
            "number" : "0x00",
            "parentHash" : "0x0000000000000000000000000000000000000000000000000000000000000000",
            "receiptTrie" : "0x56e81f171bcc55a6ff8345e692c0f86e5b48e01b996cadc001622fb5e363b421",
            "stateRoot" : "0x7819983a9418caeff976319af2b875192767faa92c38f2b81d8c0cbaf2c9a43a",
            "timestamp" : "0x03b6",
            "transactionsTrie" : "0x56e81f171bcc55a6ff8345e692c0f86e5b48e01b996cadc001622fb5e363b421",
            "uncleHash" : "0x1dcc4de8dec75d7aab85b567b6ccd41ad312451b948a7413f0a142fd40d49347"
        },
        "genesisRLP" : "0xf901fbf901f6a00000000000000000000000000000000000000000000000000000000000000000a01dcc4de8dec75d7aab85b567b6ccd41ad312451b948a7413f0a142fd40d49347942adc25665018aa1fe0e6bc666dac8fc2697ff9baa07819983a9418caeff976319af2b875192767faa92c38f2b81d8c0cbaf2c9a43aa056e81f171bcc55a6ff8345e692c0f86e5b48e01b996cadc001622fb5e363b421a056e81f171bcc55a6ff8345e692c0f86e5b48e01b996cadc001622fb5e363b421b90100000000000000000000000000000000000000000000000000000000000000000000000000000000000000000000000000000000000000000000000000000000000000000000000000000000000000000000000000000000000000000000000000000000000000000000000000000000000000000000000000000000000000000000000000000000000000000000000000000000000000000000000000000000000000000000000000000000000000000000000000000000000000000000000000000000000000000000000000000000000000000000000000000000000000000000000000000000000000000000000000000000000000000000000000000000008302000080840f0f4240808203b642a00000000000000000000000000000000000000000000000000000000000000000880000000000000000c0c0",
        "lastblockhash" : "0x7fc4bcd11c631128b86f7816d03660c12d1744802060e9ed7666aa8f3812df43",
        "network" : "ConstantinopleFix",
        "postState" : {
            "0x095e7baea6a6c7c4c2dfeb977efac326af552d87" : {
                "balance" : "0x0de0b6b3a7640001",
                "code" : "0x73e713449c212d891357cc2966816b1d528cfb59e03f60005573e713449c212d891357cc2966816b1d528cfb59e03b60015560206000600073e713449c212d891357cc2966816b1d528cfb59e03c6000516002556000600060006000600073e713449c212d891357cc2966816b1d528cfb59e061c350f26003556000603c8061010760003960006000f55073e713449c212d891357cc2966816b1d528cfb59e03f60045573e713449c212d891357cc2966816b1d528cfb59e03b60055560206000600073e713449c212d891357cc2966816b1d528cfb59e03c6000516006556000600060006000600073e713449c212d891357cc2966816b1d528cfb59e061c350f260075500fe73dddddddd000000000000000000000000000000003b6000526000516000602073dddddddd000000000000000000000000000000003c6000516020f3",
                "nonce" : "0x01",
                "storage" : {
                    "0x03" : "0x01",
                    "0x07" : "0x01"
                }
            },
            "0x2adc25665018aa1fe0e6bc666dac8fc2697ff9ba" : {
                "balance" : "0x1bc16d674fca9a58",
                "code" : "0x",
                "nonce" : "0x00",
                "storage" : {
                }
            },
            "0xb5808cabe58af0c35d24fc31c2bf302e2723d0dd" : {
                "balance" : "0x0de0b6b3a66165a7",
                "code" : "0x",
                "nonce" : "0x01",
                "storage" : {
                }
            },
            "0xdddddddd00000000000000000000000000000000" : {
                "balance" : "0x0de0b6b3a7640000",
                "code" : "0x600b605055",
                "nonce" : "0x00",
                "storage" : {
                }
            },
            "0xe713449c212d891357cc2966816b1d528cfb59e0" : {
                "balance" : "0x00",
                "code" : "0x",
                "nonce" : "0x00",
                "storage" : {
                    "0x01" : "0x01"
                }
            }
        },
        "pre" : {
            "0x095e7baea6a6c7c4c2dfeb977efac326af552d87" : {
                "balance" : "0x0de0b6b3a7640000",
                "code" : "0x73e713449c212d891357cc2966816b1d528cfb59e03f60005573e713449c212d891357cc2966816b1d528cfb59e03b60015560206000600073e713449c212d891357cc2966816b1d528cfb59e03c6000516002556000600060006000600073e713449c212d891357cc2966816b1d528cfb59e061c350f26003556000603c8061010760003960006000f55073e713449c212d891357cc2966816b1d528cfb59e03f60045573e713449c212d891357cc2966816b1d528cfb59e03b60055560206000600073e713449c212d891357cc2966816b1d528cfb59e03c6000516006556000600060006000600073e713449c212d891357cc2966816b1d528cfb59e061c350f260075500fe73dddddddd000000000000000000000000000000003b6000526000516000602073dddddddd000000000000000000000000000000003c6000516020f3",
                "nonce" : "0x00",
                "storage" : {
                }
            },
            "0xb5808cabe58af0c35d24fc31c2bf302e2723d0dd" : {
                "balance" : "0x0de0b6b3a7640000",
                "code" : "0x",
                "nonce" : "0x00",
                "storage" : {
                }
            },
            "0xdddddddd00000000000000000000000000000000" : {
                "balance" : "0x0de0b6b3a7640000",
                "code" : "0x600b605055",
                "nonce" : "0x00",
                "storage" : {
                }
            },
            "0xe713449c212d891357cc2966816b1d528cfb59e0" : {
                "balance" : "0x00",
                "code" : "0x",
                "nonce" : "0x00",
                "storage" : {
                    "0x01" : "0x01"
                }
            }
        },
        "sealEngine" : "NoProof"
    }
}