{
    "result_ShanghaiEnvConvertion_Berlin" : {
        "_info" : {
            "comment" : "",
            "filling-rpc-server" : "evm version 1.14.0-unstable-d8e0807d-20240306",
            "filling-tool-version" : "retesteth-0.3.2-cancun+commit.43b706cc.Linux.g++",
            "generatedTestHash" : "0d0a551b134a3549890a34da3ba729b0e96c00fcdcce0208185d772af3f53779",
            "lllcversion" : "Version: 0.5.14-develop.2023.7.11+commit.c58ab2c6.mod.Linux.g++",
            "solidity" : "Version: 0.8.21+commit.d9974bed.Linux.g++",
            "source" : "src/BlockchainTestsFiller/InvalidBlocks/bcExpectSection/result_ShanghaiEnvConvertionFiller.json",
            "sourceHash" : "481099f5e94909d5b801fd974f071b8bc067f57d6bc693ee0192fc781991fd2f"
        },
        "blocks" : [
            {
                "blockHeader" : {
                    "bloom" : "0x00000000000000000000000000000000000000000000000000000000000000000000000000000000000000000000000000000000000000000000000000000000000000000000000000000000000000000000000000000000000000000000000000000000000000000000000000000000000000000000000000000000000000000000000000000000000000000000000000000000000000000000000000000000000000000000000000000000000000000000000000000000000000000000000000000000000000000000000000000000000000000000000000000000000000000000000000000000000000000000000000000000000000000000000000000000",
                    "coinbase" : "0x2adc25665018aa1fe0e6bc666dac8fc2697ff9ba",
                    "difficulty" : "0x020000",
                    "extraData" : "0x42",
                    "gasLimit" : "0x7fffffffffffffff",
                    "gasUsed" : "0x012b6e",
                    "hash" : "0x8136a6c2c4e6ecb3ef2eb8a3c6da9ed7995895d05eebeba237e8cf3f1f4d0a49",
                    "mixHash" : "0x0000000000000000000000000000000000000000000000000000000000000000",
                    "nonce" : "0x0000000000000000",
                    "number" : "0x01",
                    "parentHash" : "0x7e0435ad244d5666a333a369407f028b9a894f2fa049b0a927e194577c75cc85",
                    "receiptTrie" : "0x0fb2231bc1cb2a630c2681eacf383e01100413841ad211c4b8f9cf449e80f47b",
                    "stateRoot" : "0xb260c307590d9a4b34ad746a33c38092444bc8559f599f6d1e9e7478c4e45bdd",
                    "timestamp" : "0x079e",
                    "transactionsTrie" : "0xa9d4cd3dafb846a8d8c333efe2bc87a51622a7fa2d538c3dd714c020ad12a254",
                    "uncleHash" : "0x1dcc4de8dec75d7aab85b567b6ccd41ad312451b948a7413f0a142fd40d49347"
                },
                "blocknumber" : "1",
                "chainname" : "default",
                "rlp" : "0xf90269f901fda07e0435ad244d5666a333a369407f028b9a894f2fa049b0a927e194577c75cc85a01dcc4de8dec75d7aab85b567b6ccd41ad312451b948a7413f0a142fd40d49347942adc25665018aa1fe0e6bc666dac8fc2697ff9baa0b260c307590d9a4b34ad746a33c38092444bc8559f599f6d1e9e7478c4e45bdda0a9d4cd3dafb846a8d8c333efe2bc87a51622a7fa2d538c3dd714c020ad12a254a00fb2231bc1cb2a630c2681eacf383e01100413841ad211c4b8f9cf449e80f47bb90100000000000000000000000000000000000000000000000000000000000000000000000000000000000000000000000000000000000000000000000000000000000000000000000000000000000000000000000000000000000000000000000000000000000000000000000000000000000000000000000000000000000000000000000000000000000000000000000000000000000000000000000000000000000000000000000000000000000000000000000000000000000000000000000000000000000000000000000000000000000000000000000000000000000000000000000000000000000000000000000000000000000000000000000000000000008302000001887fffffffffffffff83012b6e82079e42a00000000000000000000000000000000000000000000000000000000000000000880000000000000000f866f864801083061a80808098600c60015560068060126000396000f300fe600f600055001ba081e8bf453f62b14303275774ccb3f0857d4843fde58e8bf9d410635fccaa927aa0602ec8aec07fa4b791c5091c4b4608650291021542bcb0d4a1e62aacee35240bc0",
                "transactions" : [
                    {
                        "data" : "0x600c60015560068060126000396000f300fe600f60005500",
                        "gasLimit" : "0x061a80",
                        "gasPrice" : "0x10",
                        "nonce" : "0x00",
                        "r" : "0x81e8bf453f62b14303275774ccb3f0857d4843fde58e8bf9d410635fccaa927a",
                        "s" : "0x602ec8aec07fa4b791c5091c4b4608650291021542bcb0d4a1e62aacee35240b",
                        "sender" : "0xa94f5374fce5edbc8e2a8697c15331677e6ebf0b",
                        "to" : "",
                        "v" : "0x1b",
                        "value" : "0x00"
                    }
                ],
                "uncleHeaders" : [
                ]
            }
        ],
        "genesisBlockHeader" : {
            "bloom" : "0x00000000000000000000000000000000000000000000000000000000000000000000000000000000000000000000000000000000000000000000000000000000000000000000000000000000000000000000000000000000000000000000000000000000000000000000000000000000000000000000000000000000000000000000000000000000000000000000000000000000000000000000000000000000000000000000000000000000000000000000000000000000000000000000000000000000000000000000000000000000000000000000000000000000000000000000000000000000000000000000000000000000000000000000000000000000",
            "coinbase" : "0x2adc25665018aa1fe0e6bc666dac8fc2697ff9ba",
            "difficulty" : "0x020000",
            "extraData" : "0x42",
            "gasLimit" : "0x7fffffffffffffff",
            "gasUsed" : "0x00",
            "hash" : "0x7e0435ad244d5666a333a369407f028b9a894f2fa049b0a927e194577c75cc85",
            "mixHash" : "0x0000000000000000000000000000000000000000000000000000000000000000",
            "nonce" : "0x0000000000000000",
            "number" : "0x00",
            "parentHash" : "0x0000000000000000000000000000000000000000000000000000000000000000",
            "receiptTrie" : "0x56e81f171bcc55a6ff8345e692c0f86e5b48e01b996cadc001622fb5e363b421",
            "stateRoot" : "0x046119afb1ab36aaa8f66088677ed96cd62762f6d3e65642898e189fbe702d51",
            "timestamp" : "0x03b6",
            "transactionsTrie" : "0x56e81f171bcc55a6ff8345e692c0f86e5b48e01b996cadc001622fb5e363b421",
            "uncleHash" : "0x1dcc4de8dec75d7aab85b567b6ccd41ad312451b948a7413f0a142fd40d49347"
        },
        "genesisRLP" : "0xf901fff901faa00000000000000000000000000000000000000000000000000000000000000000a01dcc4de8dec75d7aab85b567b6ccd41ad312451b948a7413f0a142fd40d49347942adc25665018aa1fe0e6bc666dac8fc2697ff9baa0046119afb1ab36aaa8f66088677ed96cd62762f6d3e65642898e189fbe702d51a056e81f171bcc55a6ff8345e692c0f86e5b48e01b996cadc001622fb5e363b421a056e81f171bcc55a6ff8345e692c0f86e5b48e01b996cadc001622fb5e363b421b90100000000000000000000000000000000000000000000000000000000000000000000000000000000000000000000000000000000000000000000000000000000000000000000000000000000000000000000000000000000000000000000000000000000000000000000000000000000000000000000000000000000000000000000000000000000000000000000000000000000000000000000000000000000000000000000000000000000000000000000000000000000000000000000000000000000000000000000000000000000000000000000000000000000000000000000000000000000000000000000000000000000000000000000000000000000008302000080887fffffffffffffff808203b642a00000000000000000000000000000000000000000000000000000000000000000880000000000000000c0c0",
        "lastblockhash" : "0x8136a6c2c4e6ecb3ef2eb8a3c6da9ed7995895d05eebeba237e8cf3f1f4d0a49",
        "network" : "Berlin",
        "postState" : {
            "0x2adc25665018aa1fe0e6bc666dac8fc2697ff9ba" : {
                "balance" : "0x1bc16d674edab6e0",
                "code" : "0x",
                "nonce" : "0x00",
                "storage" : {
                }
            },
            "0x6295ee1b4f6dd65047762f924ecd367c17eabf8f" : {
                "balance" : "0x00",
                "code" : "0x600f60005500",
                "nonce" : "0x01",
                "storage" : {
                    "0x01" : "0x0c"
                }
            },
            "0xa94f5374fce5edbc8e2a8697c15331677e6ebf0b" : {
                "balance" : "0x016345785d774920",
                "code" : "0x",
                "nonce" : "0x01",
                "storage" : {
                }
            }
        },
        "pre" : {
            "0xa94f5374fce5edbc8e2a8697c15331677e6ebf0b" : {
                "balance" : "0x016345785d8a0000",
                "code" : "0x",
                "nonce" : "0x00",
                "storage" : {
                }
            }
        },
        "sealEngine" : "NoProof"
    },
    "result_ShanghaiEnvConvertion_Cancun" : {
        "_info" : {
            "comment" : "",
            "filling-rpc-server" : "evm version 1.14.0-unstable-d8e0807d-20240306",
            "filling-tool-version" : "retesteth-0.3.2-cancun+commit.43b706cc.Linux.g++",
            "generatedTestHash" : "145cd8dafa59ffe8c721dbfcd653b9de9c984c908653e76d88fdcecc45d80970",
            "lllcversion" : "Version: 0.5.14-develop.2023.7.11+commit.c58ab2c6.mod.Linux.g++",
            "solidity" : "Version: 0.8.21+commit.d9974bed.Linux.g++",
            "source" : "src/BlockchainTestsFiller/InvalidBlocks/bcExpectSection/result_ShanghaiEnvConvertionFiller.json",
            "sourceHash" : "481099f5e94909d5b801fd974f071b8bc067f57d6bc693ee0192fc781991fd2f"
        },
        "blocks" : [
            {
                "blockHeader" : {
                    "baseFeePerGas" : "0x0f",
                    "blobGasUsed" : "0x00",
                    "bloom" : "0x00000000000000000000000000000000000000000000000000000000000000000000000000000000000000000000000000000000000000000000000000000000000000000000000000000000000000000000000000000000000000000000000000000000000000000000000000000000000000000000000000000000000000000000000000000000000000000000000000000000000000000000000000000000000000000000000000000000000000000000000000000000000000000000000000000000000000000000000000000000000000000000000000000000000000000000000000000000000000000000000000000000000000000000000000000000",
                    "coinbase" : "0x2adc25665018aa1fe0e6bc666dac8fc2697ff9ba",
                    "difficulty" : "0x00",
                    "excessBlobGas" : "0x00",
                    "extraData" : "0x42",
                    "gasLimit" : "0x7fffffffffffffff",
                    "gasUsed" : "0x012b70",
                    "hash" : "0x6fd3f1963746842f19d39d89e0eb1c7e3bfa3ddaac1ca650e2a61991ddb3bb18",
                    "mixHash" : "0x00001f171bcc55a6ff8345e692c0f86e5b48e01b996cadc001622fb5e363b421",
                    "nonce" : "0x0000000000000000",
                    "number" : "0x01",
                    "parentBeaconBlockRoot" : "0x0000000000000000000000000000000000000000000000000000000000000000",
                    "parentHash" : "0x80b9cdc248f1537fb66b26c2b20c2eea47ba25c332cc2b79ec54a9e2c7121978",
                    "receiptTrie" : "0x242b8bc6a40c94e4698ebde2e180d2c459545a622a52f47683b59a3d921585f2",
                    "stateRoot" : "0x017e743bdca3a4fd4997b0e461e7bcd6addbc4a17674f087947732632b56e9c4",
                    "timestamp" : "0x079e",
                    "transactionsTrie" : "0xa9d4cd3dafb846a8d8c333efe2bc87a51622a7fa2d538c3dd714c020ad12a254",
                    "uncleHash" : "0x1dcc4de8dec75d7aab85b567b6ccd41ad312451b948a7413f0a142fd40d49347",
                    "withdrawalsRoot" : "0x56e81f171bcc55a6ff8345e692c0f86e5b48e01b996cadc001622fb5e363b421"
                },
                "blocknumber" : "1",
                "chainname" : "default",
                "rlp" : "0xf902acf9023fa080b9cdc248f1537fb66b26c2b20c2eea47ba25c332cc2b79ec54a9e2c7121978a01dcc4de8dec75d7aab85b567b6ccd41ad312451b948a7413f0a142fd40d49347942adc25665018aa1fe0e6bc666dac8fc2697ff9baa0017e743bdca3a4fd4997b0e461e7bcd6addbc4a17674f087947732632b56e9c4a0a9d4cd3dafb846a8d8c333efe2bc87a51622a7fa2d538c3dd714c020ad12a254a0242b8bc6a40c94e4698ebde2e180d2c459545a622a52f47683b59a3d921585f2b90100000000000000000000000000000000000000000000000000000000000000000000000000000000000000000000000000000000000000000000000000000000000000000000000000000000000000000000000000000000000000000000000000000000000000000000000000000000000000000000000000000000000000000000000000000000000000000000000000000000000000000000000000000000000000000000000000000000000000000000000000000000000000000000000000000000000000000000000000000000000000000000000000000000000000000000000000000000000000000000000000000000000000000000000000000000008001887fffffffffffffff83012b7082079e42a000001f171bcc55a6ff8345e692c0f86e5b48e01b996cadc001622fb5e363b4218800000000000000000fa056e81f171bcc55a6ff8345e692c0f86e5b48e01b996cadc001622fb5e363b4218080a00000000000000000000000000000000000000000000000000000000000000000f866f864801083061a80808098600c60015560068060126000396000f300fe600f600055001ba081e8bf453f62b14303275774ccb3f0857d4843fde58e8bf9d410635fccaa927aa0602ec8aec07fa4b791c5091c4b4608650291021542bcb0d4a1e62aacee35240bc0c0",
                "transactions" : [
                    {
                        "data" : "0x600c60015560068060126000396000f300fe600f60005500",
                        "gasLimit" : "0x061a80",
                        "gasPrice" : "0x10",
                        "nonce" : "0x00",
                        "r" : "0x81e8bf453f62b14303275774ccb3f0857d4843fde58e8bf9d410635fccaa927a",
                        "s" : "0x602ec8aec07fa4b791c5091c4b4608650291021542bcb0d4a1e62aacee35240b",
                        "sender" : "0xa94f5374fce5edbc8e2a8697c15331677e6ebf0b",
                        "to" : "",
                        "v" : "0x1b",
                        "value" : "0x00"
                    }
                ],
                "uncleHeaders" : [
                ],
                "withdrawals" : [
                ]
            }
        ],
        "genesisBlockHeader" : {
            "baseFeePerGas" : "0x11",
            "blobGasUsed" : "0x00",
            "bloom" : "0x00000000000000000000000000000000000000000000000000000000000000000000000000000000000000000000000000000000000000000000000000000000000000000000000000000000000000000000000000000000000000000000000000000000000000000000000000000000000000000000000000000000000000000000000000000000000000000000000000000000000000000000000000000000000000000000000000000000000000000000000000000000000000000000000000000000000000000000000000000000000000000000000000000000000000000000000000000000000000000000000000000000000000000000000000000000",
            "coinbase" : "0x2adc25665018aa1fe0e6bc666dac8fc2697ff9ba",
            "difficulty" : "0x00",
            "excessBlobGas" : "0x00",
            "extraData" : "0x42",
            "gasLimit" : "0x7fffffffffffffff",
            "gasUsed" : "0x00",
            "hash" : "0x80b9cdc248f1537fb66b26c2b20c2eea47ba25c332cc2b79ec54a9e2c7121978",
            "mixHash" : "0x00001f171bcc55a6ff8345e692c0f86e5b48e01b996cadc001622fb5e363b421",
            "nonce" : "0x0000000000000000",
            "number" : "0x00",
            "parentBeaconBlockRoot" : "0x0000000000000000000000000000000000000000000000000000000000000000",
            "parentHash" : "0x0000000000000000000000000000000000000000000000000000000000000000",
            "receiptTrie" : "0x56e81f171bcc55a6ff8345e692c0f86e5b48e01b996cadc001622fb5e363b421",
            "stateRoot" : "0xc9f38211bd47d18248e2bd461131b4b454dde6dd63ab70d57e157d2fe058b342",
            "timestamp" : "0x03b6",
            "transactionsTrie" : "0x56e81f171bcc55a6ff8345e692c0f86e5b48e01b996cadc001622fb5e363b421",
            "uncleHash" : "0x1dcc4de8dec75d7aab85b567b6ccd41ad312451b948a7413f0a142fd40d49347",
            "withdrawalsRoot" : "0x56e81f171bcc55a6ff8345e692c0f86e5b48e01b996cadc001622fb5e363b421"
        },
        "genesisRLP" : "0xf90242f9023ca00000000000000000000000000000000000000000000000000000000000000000a01dcc4de8dec75d7aab85b567b6ccd41ad312451b948a7413f0a142fd40d49347942adc25665018aa1fe0e6bc666dac8fc2697ff9baa0c9f38211bd47d18248e2bd461131b4b454dde6dd63ab70d57e157d2fe058b342a056e81f171bcc55a6ff8345e692c0f86e5b48e01b996cadc001622fb5e363b421a056e81f171bcc55a6ff8345e692c0f86e5b48e01b996cadc001622fb5e363b421b90100000000000000000000000000000000000000000000000000000000000000000000000000000000000000000000000000000000000000000000000000000000000000000000000000000000000000000000000000000000000000000000000000000000000000000000000000000000000000000000000000000000000000000000000000000000000000000000000000000000000000000000000000000000000000000000000000000000000000000000000000000000000000000000000000000000000000000000000000000000000000000000000000000000000000000000000000000000000000000000000000000000000000000000000000000000008080887fffffffffffffff808203b642a000001f171bcc55a6ff8345e692c0f86e5b48e01b996cadc001622fb5e363b42188000000000000000011a056e81f171bcc55a6ff8345e692c0f86e5b48e01b996cadc001622fb5e363b4218080a00000000000000000000000000000000000000000000000000000000000000000c0c0c0",
        "lastblockhash" : "0x6fd3f1963746842f19d39d89e0eb1c7e3bfa3ddaac1ca650e2a61991ddb3bb18",
        "network" : "Cancun",
        "postState" : {
            "0x000f3df6d732807ef1319fb7b8bb8522d0beac02" : {
                "balance" : "0x00",
                "code" : "0x3373fffffffffffffffffffffffffffffffffffffffe14604d57602036146024575f5ffd5b5f35801560495762001fff810690815414603c575f5ffd5b62001fff01545f5260205ff35b5f5ffd5b62001fff42064281555f359062001fff015500",
                "nonce" : "0x01",
                "storage" : {
                    "0x03b6" : "0x03b6",
                    "0x079e" : "0x079e"
                }
            },
            "0x2adc25665018aa1fe0e6bc666dac8fc2697ff9ba" : {
                "balance" : "0x012b70",
                "code" : "0x",
                "nonce" : "0x00",
                "storage" : {
                }
            },
            "0x6295ee1b4f6dd65047762f924ecd367c17eabf8f" : {
                "balance" : "0x00",
                "code" : "0x600f60005500",
                "nonce" : "0x01",
                "storage" : {
                    "0x01" : "0x0c"
                }
            },
            "0xa94f5374fce5edbc8e2a8697c15331677e6ebf0b" : {
                "balance" : "0x016345785d774900",
                "code" : "0x",
                "nonce" : "0x01",
                "storage" : {
                }
            }
        },
        "pre" : {
            "0x000f3df6d732807ef1319fb7b8bb8522d0beac02" : {
                "balance" : "0x00",
                "code" : "0x3373fffffffffffffffffffffffffffffffffffffffe14604d57602036146024575f5ffd5b5f35801560495762001fff810690815414603c575f5ffd5b62001fff01545f5260205ff35b5f5ffd5b62001fff42064281555f359062001fff015500",
                "nonce" : "0x01",
                "storage" : {
                    "0x03b6" : "0x03b6"
                }
            },
            "0xa94f5374fce5edbc8e2a8697c15331677e6ebf0b" : {
                "balance" : "0x016345785d8a0000",
                "code" : "0x",
                "nonce" : "0x00",
                "storage" : {
                }
            }
        },
        "sealEngine" : "NoProof"
    },
    "result_ShanghaiEnvConvertion_London" : {
        "_info" : {
            "comment" : "",
            "filling-rpc-server" : "evm version 1.14.0-unstable-d8e0807d-20240306",
            "filling-tool-version" : "retesteth-0.3.2-cancun+commit.43b706cc.Linux.g++",
            "generatedTestHash" : "af49c9fdf4198a54de4e1ab5dd3e52f9c7993526fbd4b89eb2d53a398f55b37d",
            "lllcversion" : "Version: 0.5.14-develop.2023.7.11+commit.c58ab2c6.mod.Linux.g++",
            "solidity" : "Version: 0.8.21+commit.d9974bed.Linux.g++",
            "source" : "src/BlockchainTestsFiller/InvalidBlocks/bcExpectSection/result_ShanghaiEnvConvertionFiller.json",
            "sourceHash" : "481099f5e94909d5b801fd974f071b8bc067f57d6bc693ee0192fc781991fd2f"
        },
        "blocks" : [
            {
                "blockHeader" : {
                    "baseFeePerGas" : "0x0f",
                    "bloom" : "0x00000000000000000000000000000000000000000000000000000000000000000000000000000000000000000000000000000000000000000000000000000000000000000000000000000000000000000000000000000000000000000000000000000000000000000000000000000000000000000000000000000000000000000000000000000000000000000000000000000000000000000000000000000000000000000000000000000000000000000000000000000000000000000000000000000000000000000000000000000000000000000000000000000000000000000000000000000000000000000000000000000000000000000000000000000000",
                    "coinbase" : "0x2adc25665018aa1fe0e6bc666dac8fc2697ff9ba",
                    "difficulty" : "0x020000",
                    "extraData" : "0x42",
                    "gasLimit" : "0x7fffffffffffffff",
                    "gasUsed" : "0x012b6e",
                    "hash" : "0x38f7c4acea9cf84a94a5bf8c829b41f17d697c16fb73d0f32de9e6b5415349a9",
                    "mixHash" : "0x0000000000000000000000000000000000000000000000000000000000000000",
                    "nonce" : "0x0000000000000000",
                    "number" : "0x01",
                    "parentHash" : "0xd58b50a117341f350d131ec3d0d78e5a0e102bd4be7b54a1feef86d2e331ede4",
                    "receiptTrie" : "0x0fb2231bc1cb2a630c2681eacf383e01100413841ad211c4b8f9cf449e80f47b",
                    "stateRoot" : "0xcfe019aa936c96ab703e10ef57ed4e1776bf96fdc2a403311ee548d12a068435",
                    "timestamp" : "0x079e",
                    "transactionsTrie" : "0xa9d4cd3dafb846a8d8c333efe2bc87a51622a7fa2d538c3dd714c020ad12a254",
                    "uncleHash" : "0x1dcc4de8dec75d7aab85b567b6ccd41ad312451b948a7413f0a142fd40d49347"
                },
                "blocknumber" : "1",
                "chainname" : "default",
                "rlp" : "0xf9026af901fea0d58b50a117341f350d131ec3d0d78e5a0e102bd4be7b54a1feef86d2e331ede4a01dcc4de8dec75d7aab85b567b6ccd41ad312451b948a7413f0a142fd40d49347942adc25665018aa1fe0e6bc666dac8fc2697ff9baa0cfe019aa936c96ab703e10ef57ed4e1776bf96fdc2a403311ee548d12a068435a0a9d4cd3dafb846a8d8c333efe2bc87a51622a7fa2d538c3dd714c020ad12a254a00fb2231bc1cb2a630c2681eacf383e01100413841ad211c4b8f9cf449e80f47bb90100000000000000000000000000000000000000000000000000000000000000000000000000000000000000000000000000000000000000000000000000000000000000000000000000000000000000000000000000000000000000000000000000000000000000000000000000000000000000000000000000000000000000000000000000000000000000000000000000000000000000000000000000000000000000000000000000000000000000000000000000000000000000000000000000000000000000000000000000000000000000000000000000000000000000000000000000000000000000000000000000000000000000000000000000000000008302000001887fffffffffffffff83012b6e82079e42a000000000000000000000000000000000000000000000000000000000000000008800000000000000000ff866f864801083061a80808098600c60015560068060126000396000f300fe600f600055001ba081e8bf453f62b14303275774ccb3f0857d4843fde58e8bf9d410635fccaa927aa0602ec8aec07fa4b791c5091c4b4608650291021542bcb0d4a1e62aacee35240bc0",
                "transactions" : [
                    {
                        "data" : "0x600c60015560068060126000396000f300fe600f60005500",
                        "gasLimit" : "0x061a80",
                        "gasPrice" : "0x10",
                        "nonce" : "0x00",
                        "r" : "0x81e8bf453f62b14303275774ccb3f0857d4843fde58e8bf9d410635fccaa927a",
                        "s" : "0x602ec8aec07fa4b791c5091c4b4608650291021542bcb0d4a1e62aacee35240b",
                        "sender" : "0xa94f5374fce5edbc8e2a8697c15331677e6ebf0b",
                        "to" : "",
                        "v" : "0x1b",
                        "value" : "0x00"
                    }
                ],
                "uncleHeaders" : [
                ]
            }
        ],
        "genesisBlockHeader" : {
            "baseFeePerGas" : "0x11",
            "bloom" : "0x00000000000000000000000000000000000000000000000000000000000000000000000000000000000000000000000000000000000000000000000000000000000000000000000000000000000000000000000000000000000000000000000000000000000000000000000000000000000000000000000000000000000000000000000000000000000000000000000000000000000000000000000000000000000000000000000000000000000000000000000000000000000000000000000000000000000000000000000000000000000000000000000000000000000000000000000000000000000000000000000000000000000000000000000000000000",
            "coinbase" : "0x2adc25665018aa1fe0e6bc666dac8fc2697ff9ba",
            "difficulty" : "0x020000",
            "extraData" : "0x42",
            "gasLimit" : "0x7fffffffffffffff",
            "gasUsed" : "0x00",
            "hash" : "0xd58b50a117341f350d131ec3d0d78e5a0e102bd4be7b54a1feef86d2e331ede4",
            "mixHash" : "0x0000000000000000000000000000000000000000000000000000000000000000",
            "nonce" : "0x0000000000000000",
            "number" : "0x00",
            "parentHash" : "0x0000000000000000000000000000000000000000000000000000000000000000",
            "receiptTrie" : "0x56e81f171bcc55a6ff8345e692c0f86e5b48e01b996cadc001622fb5e363b421",
            "stateRoot" : "0x046119afb1ab36aaa8f66088677ed96cd62762f6d3e65642898e189fbe702d51",
            "timestamp" : "0x03b6",
            "transactionsTrie" : "0x56e81f171bcc55a6ff8345e692c0f86e5b48e01b996cadc001622fb5e363b421",
            "uncleHash" : "0x1dcc4de8dec75d7aab85b567b6ccd41ad312451b948a7413f0a142fd40d49347"
        },
        "genesisRLP" : "0xf90200f901fba00000000000000000000000000000000000000000000000000000000000000000a01dcc4de8dec75d7aab85b567b6ccd41ad312451b948a7413f0a142fd40d49347942adc25665018aa1fe0e6bc666dac8fc2697ff9baa0046119afb1ab36aaa8f66088677ed96cd62762f6d3e65642898e189fbe702d51a056e81f171bcc55a6ff8345e692c0f86e5b48e01b996cadc001622fb5e363b421a056e81f171bcc55a6ff8345e692c0f86e5b48e01b996cadc001622fb5e363b421b90100000000000000000000000000000000000000000000000000000000000000000000000000000000000000000000000000000000000000000000000000000000000000000000000000000000000000000000000000000000000000000000000000000000000000000000000000000000000000000000000000000000000000000000000000000000000000000000000000000000000000000000000000000000000000000000000000000000000000000000000000000000000000000000000000000000000000000000000000000000000000000000000000000000000000000000000000000000000000000000000000000000000000000000000000000000008302000080887fffffffffffffff808203b642a0000000000000000000000000000000000000000000000000000000000000000088000000000000000011c0c0",
        "lastblockhash" : "0x38f7c4acea9cf84a94a5bf8c829b41f17d697c16fb73d0f32de9e6b5415349a9",
        "network" : "London",
        "postState" : {
            "0x2adc25665018aa1fe0e6bc666dac8fc2697ff9ba" : {
                "balance" : "0x1bc16d674ec92b6e",
                "code" : "0x",
                "nonce" : "0x00",
                "storage" : {
                }
            },
            "0x6295ee1b4f6dd65047762f924ecd367c17eabf8f" : {
                "balance" : "0x00",
                "code" : "0x600f60005500",
                "nonce" : "0x01",
                "storage" : {
                    "0x01" : "0x0c"
                }
            },
            "0xa94f5374fce5edbc8e2a8697c15331677e6ebf0b" : {
                "balance" : "0x016345785d774920",
                "code" : "0x",
                "nonce" : "0x01",
                "storage" : {
                }
            }
        },
        "pre" : {
            "0xa94f5374fce5edbc8e2a8697c15331677e6ebf0b" : {
                "balance" : "0x016345785d8a0000",
                "code" : "0x",
                "nonce" : "0x00",
                "storage" : {
                }
            }
        },
        "sealEngine" : "NoProof"
    },
    "result_ShanghaiEnvConvertion_Paris" : {
        "_info" : {
            "comment" : "",
            "filling-rpc-server" : "evm version 1.14.0-unstable-d8e0807d-20240306",
            "filling-tool-version" : "retesteth-0.3.2-cancun+commit.43b706cc.Linux.g++",
            "generatedTestHash" : "1215d0b2d101a713792d65ccfac21904f944a8eeb1370b2133d78b227e91d100",
            "lllcversion" : "Version: 0.5.14-develop.2023.7.11+commit.c58ab2c6.mod.Linux.g++",
            "solidity" : "Version: 0.8.21+commit.d9974bed.Linux.g++",
            "source" : "src/BlockchainTestsFiller/InvalidBlocks/bcExpectSection/result_ShanghaiEnvConvertionFiller.json",
            "sourceHash" : "481099f5e94909d5b801fd974f071b8bc067f57d6bc693ee0192fc781991fd2f"
        },
        "blocks" : [
            {
                "blockHeader" : {
                    "baseFeePerGas" : "0x0f",
                    "bloom" : "0x00000000000000000000000000000000000000000000000000000000000000000000000000000000000000000000000000000000000000000000000000000000000000000000000000000000000000000000000000000000000000000000000000000000000000000000000000000000000000000000000000000000000000000000000000000000000000000000000000000000000000000000000000000000000000000000000000000000000000000000000000000000000000000000000000000000000000000000000000000000000000000000000000000000000000000000000000000000000000000000000000000000000000000000000000000000",
                    "coinbase" : "0x2adc25665018aa1fe0e6bc666dac8fc2697ff9ba",
                    "difficulty" : "0x00",
                    "extraData" : "0x42",
                    "gasLimit" : "0x7fffffffffffffff",
                    "gasUsed" : "0x012b6e",
                    "hash" : "0x239dff6e1bc26e83901a28638c89e8145d95926c1c2bb9c67df04cfe3edd1838",
                    "mixHash" : "0x00001f171bcc55a6ff8345e692c0f86e5b48e01b996cadc001622fb5e363b421",
                    "nonce" : "0x0000000000000000",
                    "number" : "0x01",
                    "parentHash" : "0xe79ea5af40da4217f9b3a5e159c6b17343604007515dde505364cee9561d3cdb",
                    "receiptTrie" : "0x0fb2231bc1cb2a630c2681eacf383e01100413841ad211c4b8f9cf449e80f47b",
                    "stateRoot" : "0x4cef40b65e9473ed143670bf98fcbb3cb2879e64b556a654f63b11f41e31958f",
                    "timestamp" : "0x079e",
                    "transactionsTrie" : "0xa9d4cd3dafb846a8d8c333efe2bc87a51622a7fa2d538c3dd714c020ad12a254",
                    "uncleHash" : "0x1dcc4de8dec75d7aab85b567b6ccd41ad312451b948a7413f0a142fd40d49347"
                },
                "blocknumber" : "1",
                "chainname" : "default",
                "rlp" : "0xf90267f901fba0e79ea5af40da4217f9b3a5e159c6b17343604007515dde505364cee9561d3cdba01dcc4de8dec75d7aab85b567b6ccd41ad312451b948a7413f0a142fd40d49347942adc25665018aa1fe0e6bc666dac8fc2697ff9baa04cef40b65e9473ed143670bf98fcbb3cb2879e64b556a654f63b11f41e31958fa0a9d4cd3dafb846a8d8c333efe2bc87a51622a7fa2d538c3dd714c020ad12a254a00fb2231bc1cb2a630c2681eacf383e01100413841ad211c4b8f9cf449e80f47bb90100000000000000000000000000000000000000000000000000000000000000000000000000000000000000000000000000000000000000000000000000000000000000000000000000000000000000000000000000000000000000000000000000000000000000000000000000000000000000000000000000000000000000000000000000000000000000000000000000000000000000000000000000000000000000000000000000000000000000000000000000000000000000000000000000000000000000000000000000000000000000000000000000000000000000000000000000000000000000000000000000000000000000000000000000000000008001887fffffffffffffff83012b6e82079e42a000001f171bcc55a6ff8345e692c0f86e5b48e01b996cadc001622fb5e363b4218800000000000000000ff866f864801083061a80808098600c60015560068060126000396000f300fe600f600055001ba081e8bf453f62b14303275774ccb3f0857d4843fde58e8bf9d410635fccaa927aa0602ec8aec07fa4b791c5091c4b4608650291021542bcb0d4a1e62aacee35240bc0",
                "transactions" : [
                    {
                        "data" : "0x600c60015560068060126000396000f300fe600f60005500",
                        "gasLimit" : "0x061a80",
                        "gasPrice" : "0x10",
                        "nonce" : "0x00",
                        "r" : "0x81e8bf453f62b14303275774ccb3f0857d4843fde58e8bf9d410635fccaa927a",
                        "s" : "0x602ec8aec07fa4b791c5091c4b4608650291021542bcb0d4a1e62aacee35240b",
                        "sender" : "0xa94f5374fce5edbc8e2a8697c15331677e6ebf0b",
                        "to" : "",
                        "v" : "0x1b",
                        "value" : "0x00"
                    }
                ],
                "uncleHeaders" : [
                ]
            }
        ],
        "genesisBlockHeader" : {
            "baseFeePerGas" : "0x11",
            "bloom" : "0x00000000000000000000000000000000000000000000000000000000000000000000000000000000000000000000000000000000000000000000000000000000000000000000000000000000000000000000000000000000000000000000000000000000000000000000000000000000000000000000000000000000000000000000000000000000000000000000000000000000000000000000000000000000000000000000000000000000000000000000000000000000000000000000000000000000000000000000000000000000000000000000000000000000000000000000000000000000000000000000000000000000000000000000000000000000",
            "coinbase" : "0x2adc25665018aa1fe0e6bc666dac8fc2697ff9ba",
            "difficulty" : "0x00",
            "extraData" : "0x42",
            "gasLimit" : "0x7fffffffffffffff",
            "gasUsed" : "0x00",
            "hash" : "0xe79ea5af40da4217f9b3a5e159c6b17343604007515dde505364cee9561d3cdb",
            "mixHash" : "0x00001f171bcc55a6ff8345e692c0f86e5b48e01b996cadc001622fb5e363b421",
            "nonce" : "0x0000000000000000",
            "number" : "0x00",
            "parentHash" : "0x0000000000000000000000000000000000000000000000000000000000000000",
            "receiptTrie" : "0x56e81f171bcc55a6ff8345e692c0f86e5b48e01b996cadc001622fb5e363b421",
            "stateRoot" : "0x046119afb1ab36aaa8f66088677ed96cd62762f6d3e65642898e189fbe702d51",
            "timestamp" : "0x03b6",
            "transactionsTrie" : "0x56e81f171bcc55a6ff8345e692c0f86e5b48e01b996cadc001622fb5e363b421",
            "uncleHash" : "0x1dcc4de8dec75d7aab85b567b6ccd41ad312451b948a7413f0a142fd40d49347"
        },
        "genesisRLP" : "0xf901fdf901f8a00000000000000000000000000000000000000000000000000000000000000000a01dcc4de8dec75d7aab85b567b6ccd41ad312451b948a7413f0a142fd40d49347942adc25665018aa1fe0e6bc666dac8fc2697ff9baa0046119afb1ab36aaa8f66088677ed96cd62762f6d3e65642898e189fbe702d51a056e81f171bcc55a6ff8345e692c0f86e5b48e01b996cadc001622fb5e363b421a056e81f171bcc55a6ff8345e692c0f86e5b48e01b996cadc001622fb5e363b421b90100000000000000000000000000000000000000000000000000000000000000000000000000000000000000000000000000000000000000000000000000000000000000000000000000000000000000000000000000000000000000000000000000000000000000000000000000000000000000000000000000000000000000000000000000000000000000000000000000000000000000000000000000000000000000000000000000000000000000000000000000000000000000000000000000000000000000000000000000000000000000000000000000000000000000000000000000000000000000000000000000000000000000000000000000000000008080887fffffffffffffff808203b642a000001f171bcc55a6ff8345e692c0f86e5b48e01b996cadc001622fb5e363b42188000000000000000011c0c0",
        "lastblockhash" : "0x239dff6e1bc26e83901a28638c89e8145d95926c1c2bb9c67df04cfe3edd1838",
        "network" : "Paris",
        "postState" : {
            "0x2adc25665018aa1fe0e6bc666dac8fc2697ff9ba" : {
                "balance" : "0x012b6e",
                "code" : "0x",
                "nonce" : "0x00",
                "storage" : {
                }
            },
            "0x6295ee1b4f6dd65047762f924ecd367c17eabf8f" : {
                "balance" : "0x00",
                "code" : "0x600f60005500",
                "nonce" : "0x01",
                "storage" : {
                    "0x01" : "0x0c"
                }
            },
            "0xa94f5374fce5edbc8e2a8697c15331677e6ebf0b" : {
                "balance" : "0x016345785d774920",
                "code" : "0x",
                "nonce" : "0x01",
                "storage" : {
                }
            }
        },
        "pre" : {
            "0xa94f5374fce5edbc8e2a8697c15331677e6ebf0b" : {
                "balance" : "0x016345785d8a0000",
                "code" : "0x",
                "nonce" : "0x00",
                "storage" : {
                }
            }
        },
        "sealEngine" : "NoProof"
    },
    "result_ShanghaiEnvConvertion_Shanghai" : {
        "_info" : {
            "comment" : "",
            "filling-rpc-server" : "evm version 1.14.0-unstable-d8e0807d-20240306",
            "filling-tool-version" : "retesteth-0.3.2-cancun+commit.43b706cc.Linux.g++",
            "generatedTestHash" : "1e349175813c9a2142c89da28c7ab3a6dc322b74d79f41ddf8487c54146374e4",
            "lllcversion" : "Version: 0.5.14-develop.2023.7.11+commit.c58ab2c6.mod.Linux.g++",
            "solidity" : "Version: 0.8.21+commit.d9974bed.Linux.g++",
            "source" : "src/BlockchainTestsFiller/InvalidBlocks/bcExpectSection/result_ShanghaiEnvConvertionFiller.json",
            "sourceHash" : "481099f5e94909d5b801fd974f071b8bc067f57d6bc693ee0192fc781991fd2f"
        },
        "blocks" : [
            {
                "blockHeader" : {
                    "baseFeePerGas" : "0x0f",
                    "bloom" : "0x00000000000000000000000000000000000000000000000000000000000000000000000000000000000000000000000000000000000000000000000000000000000000000000000000000000000000000000000000000000000000000000000000000000000000000000000000000000000000000000000000000000000000000000000000000000000000000000000000000000000000000000000000000000000000000000000000000000000000000000000000000000000000000000000000000000000000000000000000000000000000000000000000000000000000000000000000000000000000000000000000000000000000000000000000000000",
                    "coinbase" : "0x2adc25665018aa1fe0e6bc666dac8fc2697ff9ba",
                    "difficulty" : "0x00",
                    "extraData" : "0x42",
                    "gasLimit" : "0x7fffffffffffffff",
                    "gasUsed" : "0x012b70",
                    "hash" : "0xe291da6a1842ac17f8fe7cb15c34bbba49278476f24ad0ae4dcff2a474455845",
                    "mixHash" : "0x00001f171bcc55a6ff8345e692c0f86e5b48e01b996cadc001622fb5e363b421",
                    "nonce" : "0x0000000000000000",
                    "number" : "0x01",
                    "parentHash" : "0x03b5c857336057f3fe412115185a62a0fe83f6fd182557c48381d561d05c9eca",
                    "receiptTrie" : "0x242b8bc6a40c94e4698ebde2e180d2c459545a622a52f47683b59a3d921585f2",
                    "stateRoot" : "0x607ef85c262152ec6231f27f49cda4db15daa2a9a1e0050a86409afb907ef3bf",
                    "timestamp" : "0x079e",
                    "transactionsTrie" : "0xa9d4cd3dafb846a8d8c333efe2bc87a51622a7fa2d538c3dd714c020ad12a254",
                    "uncleHash" : "0x1dcc4de8dec75d7aab85b567b6ccd41ad312451b948a7413f0a142fd40d49347",
                    "withdrawalsRoot" : "0x56e81f171bcc55a6ff8345e692c0f86e5b48e01b996cadc001622fb5e363b421"
                },
                "blocknumber" : "1",
                "chainname" : "default",
                "rlp" : "0xf90289f9021ca003b5c857336057f3fe412115185a62a0fe83f6fd182557c48381d561d05c9ecaa01dcc4de8dec75d7aab85b567b6ccd41ad312451b948a7413f0a142fd40d49347942adc25665018aa1fe0e6bc666dac8fc2697ff9baa0607ef85c262152ec6231f27f49cda4db15daa2a9a1e0050a86409afb907ef3bfa0a9d4cd3dafb846a8d8c333efe2bc87a51622a7fa2d538c3dd714c020ad12a254a0242b8bc6a40c94e4698ebde2e180d2c459545a622a52f47683b59a3d921585f2b90100000000000000000000000000000000000000000000000000000000000000000000000000000000000000000000000000000000000000000000000000000000000000000000000000000000000000000000000000000000000000000000000000000000000000000000000000000000000000000000000000000000000000000000000000000000000000000000000000000000000000000000000000000000000000000000000000000000000000000000000000000000000000000000000000000000000000000000000000000000000000000000000000000000000000000000000000000000000000000000000000000000000000000000000000000000008001887fffffffffffffff83012b7082079e42a000001f171bcc55a6ff8345e692c0f86e5b48e01b996cadc001622fb5e363b4218800000000000000000fa056e81f171bcc55a6ff8345e692c0f86e5b48e01b996cadc001622fb5e363b421f866f864801083061a80808098600c60015560068060126000396000f300fe600f600055001ba081e8bf453f62b14303275774ccb3f0857d4843fde58e8bf9d410635fccaa927aa0602ec8aec07fa4b791c5091c4b4608650291021542bcb0d4a1e62aacee35240bc0c0",
                "transactions" : [
                    {
                        "data" : "0x600c60015560068060126000396000f300fe600f60005500",
                        "gasLimit" : "0x061a80",
                        "gasPrice" : "0x10",
                        "nonce" : "0x00",
                        "r" : "0x81e8bf453f62b14303275774ccb3f0857d4843fde58e8bf9d410635fccaa927a",
                        "s" : "0x602ec8aec07fa4b791c5091c4b4608650291021542bcb0d4a1e62aacee35240b",
                        "sender" : "0xa94f5374fce5edbc8e2a8697c15331677e6ebf0b",
                        "to" : "",
                        "v" : "0x1b",
                        "value" : "0x00"
                    }
                ],
                "uncleHeaders" : [
                ],
                "withdrawals" : [
                ]
            }
        ],
        "genesisBlockHeader" : {
            "baseFeePerGas" : "0x11",
            "bloom" : "0x00000000000000000000000000000000000000000000000000000000000000000000000000000000000000000000000000000000000000000000000000000000000000000000000000000000000000000000000000000000000000000000000000000000000000000000000000000000000000000000000000000000000000000000000000000000000000000000000000000000000000000000000000000000000000000000000000000000000000000000000000000000000000000000000000000000000000000000000000000000000000000000000000000000000000000000000000000000000000000000000000000000000000000000000000000000",
            "coinbase" : "0x2adc25665018aa1fe0e6bc666dac8fc2697ff9ba",
            "difficulty" : "0x00",
            "extraData" : "0x42",
            "gasLimit" : "0x7fffffffffffffff",
            "gasUsed" : "0x00",
            "hash" : "0x03b5c857336057f3fe412115185a62a0fe83f6fd182557c48381d561d05c9eca",
            "mixHash" : "0x00001f171bcc55a6ff8345e692c0f86e5b48e01b996cadc001622fb5e363b421",
            "nonce" : "0x0000000000000000",
            "number" : "0x00",
            "parentHash" : "0x0000000000000000000000000000000000000000000000000000000000000000",
            "receiptTrie" : "0x56e81f171bcc55a6ff8345e692c0f86e5b48e01b996cadc001622fb5e363b421",
            "stateRoot" : "0x046119afb1ab36aaa8f66088677ed96cd62762f6d3e65642898e189fbe702d51",
            "timestamp" : "0x03b6",
            "transactionsTrie" : "0x56e81f171bcc55a6ff8345e692c0f86e5b48e01b996cadc001622fb5e363b421",
            "uncleHash" : "0x1dcc4de8dec75d7aab85b567b6ccd41ad312451b948a7413f0a142fd40d49347",
            "withdrawalsRoot" : "0x56e81f171bcc55a6ff8345e692c0f86e5b48e01b996cadc001622fb5e363b421"
        },
        "genesisRLP" : "0xf9021ff90219a00000000000000000000000000000000000000000000000000000000000000000a01dcc4de8dec75d7aab85b567b6ccd41ad312451b948a7413f0a142fd40d49347942adc25665018aa1fe0e6bc666dac8fc2697ff9baa0046119afb1ab36aaa8f66088677ed96cd62762f6d3e65642898e189fbe702d51a056e81f171bcc55a6ff8345e692c0f86e5b48e01b996cadc001622fb5e363b421a056e81f171bcc55a6ff8345e692c0f86e5b48e01b996cadc001622fb5e363b421b90100000000000000000000000000000000000000000000000000000000000000000000000000000000000000000000000000000000000000000000000000000000000000000000000000000000000000000000000000000000000000000000000000000000000000000000000000000000000000000000000000000000000000000000000000000000000000000000000000000000000000000000000000000000000000000000000000000000000000000000000000000000000000000000000000000000000000000000000000000000000000000000000000000000000000000000000000000000000000000000000000000000000000000000000000000000008080887fffffffffffffff808203b642a000001f171bcc55a6ff8345e692c0f86e5b48e01b996cadc001622fb5e363b42188000000000000000011a056e81f171bcc55a6ff8345e692c0f86e5b48e01b996cadc001622fb5e363b421c0c0c0",
        "lastblockhash" : "0xe291da6a1842ac17f8fe7cb15c34bbba49278476f24ad0ae4dcff2a474455845",
        "network" : "Shanghai",
        "postState" : {
            "0x2adc25665018aa1fe0e6bc666dac8fc2697ff9ba" : {
                "balance" : "0x012b70",
                "code" : "0x",
                "nonce" : "0x00",
                "storage" : {
                }
            },
            "0x6295ee1b4f6dd65047762f924ecd367c17eabf8f" : {
                "balance" : "0x00",
                "code" : "0x600f60005500",
                "nonce" : "0x01",
                "storage" : {
                    "0x01" : "0x0c"
                }
            },
            "0xa94f5374fce5edbc8e2a8697c15331677e6ebf0b" : {
                "balance" : "0x016345785d774900",
                "code" : "0x",
                "nonce" : "0x01",
                "storage" : {
                }
            }
        },
        "pre" : {
            "0xa94f5374fce5edbc8e2a8697c15331677e6ebf0b" : {
                "balance" : "0x016345785d8a0000",
                "code" : "0x",
                "nonce" : "0x00",
                "storage" : {
                }
            }
        },
        "sealEngine" : "NoProof"
    }
}