{
    "result_cancunEnvConvertion" : {
        "_info" : {
            "comment" : "A unittest for retesteth env section convertion",
            "filling-rpc-server" : "evm version 1.14.0-unstable-d8e0807d-20240306",
            "filling-tool-version" : "retesteth-0.3.2-cancun+commit.a599ee61.Linux.g++",
            "generatedTestHash" : "3b0b38d0bfa4e321ddb5255765280592a38f2638b4606d61abcc92b0d2737eec",
            "lllcversion" : "Version: 0.5.14-develop.2023.7.11+commit.c58ab2c6.mod.Linux.g++",
            "solidity" : "Version: 0.8.21+commit.d9974bed.Linux.g++",
            "source" : "src/GeneralStateTestsFiller/stExpectSection/result_cancunEnvConvertionFiller.json",
            "sourceHash" : "3f902eab1e91df5fed6cb74b657d1a7cd40221b7dff4c7ac68ccb8216a84fd05"
        },
        "env" : {
            "currentBaseFee" : "0x12",
            "currentCoinbase" : "0x2adc25665018aa1fe0e6bc666dac8fc2697ff9ba",
            "currentDifficulty" : "0x020000",
            "currentExcessBlobGas" : "0x07d0",
            "currentGasLimit" : "0xff112233445566",
            "currentNumber" : "0x01",
            "currentRandom" : "0x1100000000000000000000000000000000000000000000000000000000020000",
            "currentTimestamp" : "0x03e8"
        },
        "post" : {
            "Berlin" : [
                {
                    "hash" : "0xa55e2367ca8fed40372c0308f6d3816f5dbdec64a45f4ea4452766abdda79118",
                    "indexes" : {
                        "data" : 0,
                        "gas" : 0,
                        "value" : 0
                    },
                    "logs" : "0x1dcc4de8dec75d7aab85b567b6ccd41ad312451b948a7413f0a142fd40d49347",
                    "txbytes" : "0xf863802d83061a8094095e7baea6a6c7c4c2dfeb977efac326af552d87830186a0801ba00b84265c2a62e6aabf5c111b83bcb1d09808db61c546e848ae882268c0abda20a0031c4e22ec798a48feb56369bc82a38ce2287fb36581962f8736ef0d410077d4"
                }
            ],
            "Cancun" : [
                {
                    "hash" : "0x4d4d0c32a5db9d304c791eee87457b6c2003052906833b19edcd1329663057ca",
                    "indexes" : {
                        "data" : 0,
                        "gas" : 0,
                        "value" : 0
                    },
                    "logs" : "0x1dcc4de8dec75d7aab85b567b6ccd41ad312451b948a7413f0a142fd40d49347",
                    "txbytes" : "0xf863802d83061a8094095e7baea6a6c7c4c2dfeb977efac326af552d87830186a0801ba00b84265c2a62e6aabf5c111b83bcb1d09808db61c546e848ae882268c0abda20a0031c4e22ec798a48feb56369bc82a38ce2287fb36581962f8736ef0d410077d4"
                }
            ],
            "London" : [
                {
                    "hash" : "0x4d4d0c32a5db9d304c791eee87457b6c2003052906833b19edcd1329663057ca",
                    "indexes" : {
                        "data" : 0,
                        "gas" : 0,
                        "value" : 0
                    },
                    "logs" : "0x1dcc4de8dec75d7aab85b567b6ccd41ad312451b948a7413f0a142fd40d49347",
                    "txbytes" : "0xf863802d83061a8094095e7baea6a6c7c4c2dfeb977efac326af552d87830186a0801ba00b84265c2a62e6aabf5c111b83bcb1d09808db61c546e848ae882268c0abda20a0031c4e22ec798a48feb56369bc82a38ce2287fb36581962f8736ef0d410077d4"
                }
            ],
            "Paris" : [
                {
                    "hash" : "0x4d4d0c32a5db9d304c791eee87457b6c2003052906833b19edcd1329663057ca",
                    "indexes" : {
                        "data" : 0,
                        "gas" : 0,
                        "value" : 0
                    },
                    "logs" : "0x1dcc4de8dec75d7aab85b567b6ccd41ad312451b948a7413f0a142fd40d49347",
                    "txbytes" : "0xf863802d83061a8094095e7baea6a6c7c4c2dfeb977efac326af552d87830186a0801ba00b84265c2a62e6aabf5c111b83bcb1d09808db61c546e848ae882268c0abda20a0031c4e22ec798a48feb56369bc82a38ce2287fb36581962f8736ef0d410077d4"
                }
            ],
            "Shanghai" : [
                {
                    "hash" : "0x4d4d0c32a5db9d304c791eee87457b6c2003052906833b19edcd1329663057ca",
                    "indexes" : {
                        "data" : 0,
                        "gas" : 0,
                        "value" : 0
                    },
                    "logs" : "0x1dcc4de8dec75d7aab85b567b6ccd41ad312451b948a7413f0a142fd40d49347",
                    "txbytes" : "0xf863802d83061a8094095e7baea6a6c7c4c2dfeb977efac326af552d87830186a0801ba00b84265c2a62e6aabf5c111b83bcb1d09808db61c546e848ae882268c0abda20a0031c4e22ec798a48feb56369bc82a38ce2287fb36581962f8736ef0d410077d4"
                }
            ]
        },
        "pre" : {
            "0x095e7baea6a6c7c4c2dfeb977efac326af552d87" : {
                "balance" : "0x0de0b6b3a7640000",
                "code" : "0x600160010160005500",
                "nonce" : "0x00",
                "storage" : {
                }
            },
            "0x2adc25665018aa1fe0e6bc666dac8fc2697ff9ba" : {
                "balance" : "0x00",
                "code" : "0x",
                "nonce" : "0x01",
                "storage" : {
                }
            },
            "0xa94f5374fce5edbc8e2a8697c15331677e6ebf0b" : {
                "balance" : "0x0de0b6b3a7640000",
                "code" : "0x",
                "nonce" : "0x00",
                "storage" : {
                }
            }
        },
        "transaction" : {
            "data" : [
                "0x"
            ],
            "gasLimit" : [
                "0x061a80"
            ],
            "gasPrice" : "0x2d",
            "nonce" : "0x00",
            "secretKey" : "0x45a915e4d060149eb4365960e6a7a45f334393093061116b197e3240065ff2d8",
            "sender" : "0xa94f5374fce5edbc8e2a8697c15331677e6ebf0b",
            "to" : "0x095e7baea6a6c7c4c2dfeb977efac326af552d87",
            "value" : [
                "0x0186a0"
            ]
        }
    }
}