{
    "RevertInCreateInInitCreate2_d0g0v0_Constantinople" : {
        "_info" : {
            "comment" : "RevertInCreateInInit for CREATE2",
            "filling-rpc-server" : "evm version 1.14.1-unstable-4bdbaab4-20240428",
            "filling-tool-version" : "retesteth-0.3.2-cancun+commit.dec67d06.Linux.g++",
            "generatedTestHash" : "28ae21e85ba22e3f0d74de5611a79e1e8b893ef99d03f360e1228e962247d2ab",
            "lllcversion" : "Version: 0.5.14-develop.2023.7.11+commit.c58ab2c6.mod.Linux.g++",
            "solidity" : "Version: 0.8.21+commit.d9974bed.Linux.g++",
            "source" : "LegacyTests/src/LegacyTests/Constantinople/BlockchainTestsFiller/GeneralStateTests/stCreate2/RevertInCreateInInitCreate2_d0g0v0Filler.json",
            "sourceHash" : "5969b3e2d74ac369f135ee78aa2c47db88fad09a83444f9150c7f461936465a8"
        },
        "blocks" : [
            {
                "blockHeader" : {
                    "bloom" : "0x00000000000000000000000000000000000000000000000000000000000000000000000000000000000000000000000000000000000000000000000000000000000000000000000000000000000000000000000000000000000000000000000000000000000000000000000000000000000000000000000000000000000000000000000000000000000000000000000000000000000000000000000000000000000000000000000000000000000000000000000000000000000000000000000000000000000000000000000000000000000000000000000000000000000000000000000000000000000000000000000000000000000000000000000000000000",
                    "coinbase" : "0x2adc25665018aa1fe0e6bc666dac8fc2697ff9ba",
                    "difficulty" : "0x020000",
                    "extraData" : "0x42",
                    "gasLimit" : "0x0b00000000",
                    "gasUsed" : "0x0a00000000",
                    "hash" : "0x2ad4adf0ef9398a4f950366c53e07e1a1c5fefca20e53b380779de385b7eae93",
                    "mixHash" : "0x0000000000000000000000000000000000000000000000000000000000000000",
                    "nonce" : "0x0000000000000000",
                    "number" : "0x01",
                    "parentHash" : "0x5fbaaba640080843c506b05c03af238a5dd78fdb886a1ea7ad8fe548e99e177e",
                    "receiptTrie" : "0x97fe59b8004de685658f61c2939be1892eb8593c1ce622c392dd985946712e06",
                    "stateRoot" : "0xf3402cf362caa8a38088bb963699a3cb91544fac16277a7c6535e1f333fd9cee",
                    "timestamp" : "0x03e8",
                    "transactionsTrie" : "0x6f286553969081bacde96e85cb0ebf4800211380273cf0030a678ce757e8cf1f",
                    "uncleHash" : "0x1dcc4de8dec75d7aab85b567b6ccd41ad312451b948a7413f0a142fd40d49347"
                },
                "blocknumber" : "1",
                "chainname" : "default",
                "rlp" : "0xf90286f901fca05fbaaba640080843c506b05c03af238a5dd78fdb886a1ea7ad8fe548e99e177ea01dcc4de8dec75d7aab85b567b6ccd41ad312451b948a7413f0a142fd40d49347942adc25665018aa1fe0e6bc666dac8fc2697ff9baa0f3402cf362caa8a38088bb963699a3cb91544fac16277a7c6535e1f333fd9ceea06f286553969081bacde96e85cb0ebf4800211380273cf0030a678ce757e8cf1fa097fe59b8004de685658f61c2939be1892eb8593c1ce622c392dd985946712e06b90100000000000000000000000000000000000000000000000000000000000000000000000000000000000000000000000000000000000000000000000000000000000000000000000000000000000000000000000000000000000000000000000000000000000000000000000000000000000000000000000000000000000000000000000000000000000000000000000000000000000000000000000000000000000000000000000000000000000000000000000000000000000000000000000000000000000000000000000000000000000000000000000000000000000000000000000000000000000000000000000000000000000000000000000000000000008302000001850b00000000850a000000008203e842a00000000000000000000000000000000000000000000000000000000000000000880000000000000000f884f8828001850a000000008080b430506000600d80602760003960006000f56002553d6000556020600060003e60005160015500fe6211223360005260206000fd001ba07da590d608eb999d11fc150805eb9583d3eda375a7898e5b1fccf547867062a2a062bb6e5764ce0ded6e16c46a94ac0ed098201eb64bbc997677b2f54b68a0c03dc0",
                "transactions" : [
                    {
                        "data" : "0x30506000600d80602760003960006000f56002553d6000556020600060003e60005160015500fe6211223360005260206000fd00",
                        "gasLimit" : "0x0a00000000",
                        "gasPrice" : "0x01",
                        "nonce" : "0x00",
                        "r" : "0x7da590d608eb999d11fc150805eb9583d3eda375a7898e5b1fccf547867062a2",
                        "s" : "0x62bb6e5764ce0ded6e16c46a94ac0ed098201eb64bbc997677b2f54b68a0c03d",
                        "to" : "",
                        "v" : "0x1b",
                        "value" : "0x00"
                    }
                ],
                "uncleHeaders" : [
                ]
            }
        ],
        "genesisBlockHeader" : {
            "bloom" : "0x00000000000000000000000000000000000000000000000000000000000000000000000000000000000000000000000000000000000000000000000000000000000000000000000000000000000000000000000000000000000000000000000000000000000000000000000000000000000000000000000000000000000000000000000000000000000000000000000000000000000000000000000000000000000000000000000000000000000000000000000000000000000000000000000000000000000000000000000000000000000000000000000000000000000000000000000000000000000000000000000000000000000000000000000000000000",
            "coinbase" : "0x2adc25665018aa1fe0e6bc666dac8fc2697ff9ba",
            "difficulty" : "0x020000",
            "extraData" : "0x42",
            "gasLimit" : "0x0b00000000",
            "gasUsed" : "0x00",
            "hash" : "0x5fbaaba640080843c506b05c03af238a5dd78fdb886a1ea7ad8fe548e99e177e",
            "mixHash" : "0x0000000000000000000000000000000000000000000000000000000000000000",
            "nonce" : "0x0000000000000000",
            "number" : "0x00",
            "parentHash" : "0x0000000000000000000000000000000000000000000000000000000000000000",
            "receiptTrie" : "0x56e81f171bcc55a6ff8345e692c0f86e5b48e01b996cadc001622fb5e363b421",
            "stateRoot" : "0xbb66f5a3f61c86eba37c5ea6c3464988e4a07b794414d7791770c44c065cfae9",
            "timestamp" : "0x03b6",
            "transactionsTrie" : "0x56e81f171bcc55a6ff8345e692c0f86e5b48e01b996cadc001622fb5e363b421",
            "uncleHash" : "0x1dcc4de8dec75d7aab85b567b6ccd41ad312451b948a7413f0a142fd40d49347"
        },
        "genesisRLP" : "0xf901fcf901f7a00000000000000000000000000000000000000000000000000000000000000000a01dcc4de8dec75d7aab85b567b6ccd41ad312451b948a7413f0a142fd40d49347942adc25665018aa1fe0e6bc666dac8fc2697ff9baa0bb66f5a3f61c86eba37c5ea6c3464988e4a07b794414d7791770c44c065cfae9a056e81f171bcc55a6ff8345e692c0f86e5b48e01b996cadc001622fb5e363b421a056e81f171bcc55a6ff8345e692c0f86e5b48e01b996cadc001622fb5e363b421b90100000000000000000000000000000000000000000000000000000000000000000000000000000000000000000000000000000000000000000000000000000000000000000000000000000000000000000000000000000000000000000000000000000000000000000000000000000000000000000000000000000000000000000000000000000000000000000000000000000000000000000000000000000000000000000000000000000000000000000000000000000000000000000000000000000000000000000000000000000000000000000000000000000000000000000000000000000000000000000000000000000000000000000000000000000000008302000080850b00000000808203b642a00000000000000000000000000000000000000000000000000000000000000000880000000000000000c0c0",
        "lastblockhash" : "0x2ad4adf0ef9398a4f950366c53e07e1a1c5fefca20e53b380779de385b7eae93",
        "network" : "Constantinople",
        "postState" : {
            "0x2adc25665018aa1fe0e6bc666dac8fc2697ff9ba" : {
                "balance" : "0x1bc16d714ec80000",
                "code" : "0x",
                "nonce" : "0x00",
                "storage" : {
                }
            },
            "0x6295ee1b4f6dd65047762f924ecd367c17eabf8f" : {
                "balance" : "0x00",
                "code" : "0x",
                "nonce" : "0x00",
                "storage" : {
                    "0x00" : "0x01"
                }
            },
            "0xa94f5374fce5edbc8e2a8697c15331677e6ebf0b" : {
                "balance" : "0x5a00000000",
                "code" : "0x",
                "nonce" : "0x01",
                "storage" : {
                }
            }
        },
        "pre" : {
            "0x6295ee1b4f6dd65047762f924ecd367c17eabf8f" : {
                "balance" : "0x00",
                "code" : "0x",
                "nonce" : "0x00",
                "storage" : {
                    "0x00" : "0x01"
                }
            },
            "0xa94f5374fce5edbc8e2a8697c15331677e6ebf0b" : {
                "balance" : "0x6400000000",
                "code" : "0x",
                "nonce" : "0x00",
                "storage" : {
                }
            }
        },
        "sealEngine" : "NoProof"
    },
    "RevertInCreateInInitCreate2_d0g0v0_ConstantinopleFix" : {
        "_info" : {
            "comment" : "RevertInCreateInInit for CREATE2",
            "filling-rpc-server" : "evm version 1.14.1-unstable-4bdbaab4-20240428",
            "filling-tool-version" : "retesteth-0.3.2-cancun+commit.dec67d06.Linux.g++",
            "generatedTestHash" : "40db960548ce1c87e88d24647d9935ff571241ede2d3ca9892fd01fe60cd31ae",
            "lllcversion" : "Version: 0.5.14-develop.2023.7.11+commit.c58ab2c6.mod.Linux.g++",
            "solidity" : "Version: 0.8.21+commit.d9974bed.Linux.g++",
            "source" : "LegacyTests/src/LegacyTests/Constantinople/BlockchainTestsFiller/GeneralStateTests/stCreate2/RevertInCreateInInitCreate2_d0g0v0Filler.json",
            "sourceHash" : "5969b3e2d74ac369f135ee78aa2c47db88fad09a83444f9150c7f461936465a8"
        },
        "blocks" : [
            {
                "blockHeader" : {
                    "bloom" : "0x00000000000000000000000000000000000000000000000000000000000000000000000000000000000000000000000000000000000000000000000000000000000000000000000000000000000000000000000000000000000000000000000000000000000000000000000000000000000000000000000000000000000000000000000000000000000000000000000000000000000000000000000000000000000000000000000000000000000000000000000000000000000000000000000000000000000000000000000000000000000000000000000000000000000000000000000000000000000000000000000000000000000000000000000000000000",
                    "coinbase" : "0x2adc25665018aa1fe0e6bc666dac8fc2697ff9ba",
                    "difficulty" : "0x020000",
                    "extraData" : "0x42",
                    "gasLimit" : "0x0b00000000",
                    "gasUsed" : "0x0a00000000",
                    "hash" : "0x2ad4adf0ef9398a4f950366c53e07e1a1c5fefca20e53b380779de385b7eae93",
                    "mixHash" : "0x0000000000000000000000000000000000000000000000000000000000000000",
                    "nonce" : "0x0000000000000000",
                    "number" : "0x01",
                    "parentHash" : "0x5fbaaba640080843c506b05c03af238a5dd78fdb886a1ea7ad8fe548e99e177e",
                    "receiptTrie" : "0x97fe59b8004de685658f61c2939be1892eb8593c1ce622c392dd985946712e06",
                    "stateRoot" : "0xf3402cf362caa8a38088bb963699a3cb91544fac16277a7c6535e1f333fd9cee",
                    "timestamp" : "0x03e8",
                    "transactionsTrie" : "0x6f286553969081bacde96e85cb0ebf4800211380273cf0030a678ce757e8cf1f",
                    "uncleHash" : "0x1dcc4de8dec75d7aab85b567b6ccd41ad312451b948a7413f0a142fd40d49347"
                },
                "blocknumber" : "1",
                "chainname" : "default",
                "rlp" : "0xf90286f901fca05fbaaba640080843c506b05c03af238a5dd78fdb886a1ea7ad8fe548e99e177ea01dcc4de8dec75d7aab85b567b6ccd41ad312451b948a7413f0a142fd40d49347942adc25665018aa1fe0e6bc666dac8fc2697ff9baa0f3402cf362caa8a38088bb963699a3cb91544fac16277a7c6535e1f333fd9ceea06f286553969081bacde96e85cb0ebf4800211380273cf0030a678ce757e8cf1fa097fe59b8004de685658f61c2939be1892eb8593c1ce622c392dd985946712e06b90100000000000000000000000000000000000000000000000000000000000000000000000000000000000000000000000000000000000000000000000000000000000000000000000000000000000000000000000000000000000000000000000000000000000000000000000000000000000000000000000000000000000000000000000000000000000000000000000000000000000000000000000000000000000000000000000000000000000000000000000000000000000000000000000000000000000000000000000000000000000000000000000000000000000000000000000000000000000000000000000000000000000000000000000000000000008302000001850b00000000850a000000008203e842a00000000000000000000000000000000000000000000000000000000000000000880000000000000000f884f8828001850a000000008080b430506000600d80602760003960006000f56002553d6000556020600060003e60005160015500fe6211223360005260206000fd001ba07da590d608eb999d11fc150805eb9583d3eda375a7898e5b1fccf547867062a2a062bb6e5764ce0ded6e16c46a94ac0ed098201eb64bbc997677b2f54b68a0c03dc0",
                "transactions" : [
                    {
                        "data" : "0x30506000600d80602760003960006000f56002553d6000556020600060003e60005160015500fe6211223360005260206000fd00",
                        "gasLimit" : "0x0a00000000",
                        "gasPrice" : "0x01",
                        "nonce" : "0x00",
                        "r" : "0x7da590d608eb999d11fc150805eb9583d3eda375a7898e5b1fccf547867062a2",
                        "s" : "0x62bb6e5764ce0ded6e16c46a94ac0ed098201eb64bbc997677b2f54b68a0c03d",
                        "to" : "",
                        "v" : "0x1b",
                        "value" : "0x00"
                    }
                ],
                "uncleHeaders" : [
                ]
            }
        ],
        "genesisBlockHeader" : {
            "bloom" : "0x00000000000000000000000000000000000000000000000000000000000000000000000000000000000000000000000000000000000000000000000000000000000000000000000000000000000000000000000000000000000000000000000000000000000000000000000000000000000000000000000000000000000000000000000000000000000000000000000000000000000000000000000000000000000000000000000000000000000000000000000000000000000000000000000000000000000000000000000000000000000000000000000000000000000000000000000000000000000000000000000000000000000000000000000000000000",
            "coinbase" : "0x2adc25665018aa1fe0e6bc666dac8fc2697ff9ba",
            "difficulty" : "0x020000",
            "extraData" : "0x42",
            "gasLimit" : "0x0b00000000",
            "gasUsed" : "0x00",
            "hash" : "0x5fbaaba640080843c506b05c03af238a5dd78fdb886a1ea7ad8fe548e99e177e",
            "mixHash" : "0x0000000000000000000000000000000000000000000000000000000000000000",
            "nonce" : "0x0000000000000000",
            "number" : "0x00",
            "parentHash" : "0x0000000000000000000000000000000000000000000000000000000000000000",
            "receiptTrie" : "0x56e81f171bcc55a6ff8345e692c0f86e5b48e01b996cadc001622fb5e363b421",
            "stateRoot" : "0xbb66f5a3f61c86eba37c5ea6c3464988e4a07b794414d7791770c44c065cfae9",
            "timestamp" : "0x03b6",
            "transactionsTrie" : "0x56e81f171bcc55a6ff8345e692c0f86e5b48e01b996cadc001622fb5e363b421",
            "uncleHash" : "0x1dcc4de8dec75d7aab85b567b6ccd41ad312451b948a7413f0a142fd40d49347"
        },
        "genesisRLP" : "0xf901fcf901f7a00000000000000000000000000000000000000000000000000000000000000000a01dcc4de8dec75d7aab85b567b6ccd41ad312451b948a7413f0a142fd40d49347942adc25665018aa1fe0e6bc666dac8fc2697ff9baa0bb66f5a3f61c86eba37c5ea6c3464988e4a07b794414d7791770c44c065cfae9a056e81f171bcc55a6ff8345e692c0f86e5b48e01b996cadc001622fb5e363b421a056e81f171bcc55a6ff8345e692c0f86e5b48e01b996cadc001622fb5e363b421b90100000000000000000000000000000000000000000000000000000000000000000000000000000000000000000000000000000000000000000000000000000000000000000000000000000000000000000000000000000000000000000000000000000000000000000000000000000000000000000000000000000000000000000000000000000000000000000000000000000000000000000000000000000000000000000000000000000000000000000000000000000000000000000000000000000000000000000000000000000000000000000000000000000000000000000000000000000000000000000000000000000000000000000000000000000000008302000080850b00000000808203b642a00000000000000000000000000000000000000000000000000000000000000000880000000000000000c0c0",
        "lastblockhash" : "0x2ad4adf0ef9398a4f950366c53e07e1a1c5fefca20e53b380779de385b7eae93",
        "network" : "ConstantinopleFix",
        "postState" : {
            "0x2adc25665018aa1fe0e6bc666dac8fc2697ff9ba" : {
                "balance" : "0x1bc16d714ec80000",
                "code" : "0x",
                "nonce" : "0x00",
                "storage" : {
                }
            },
            "0x6295ee1b4f6dd65047762f924ecd367c17eabf8f" : {
                "balance" : "0x00",
                "code" : "0x",
                "nonce" : "0x00",
                "storage" : {
                    "0x00" : "0x01"
                }
            },
            "0xa94f5374fce5edbc8e2a8697c15331677e6ebf0b" : {
                "balance" : "0x5a00000000",
                "code" : "0x",
                "nonce" : "0x01",
                "storage" : {
                }
            }
        },
        "pre" : {
            "0x6295ee1b4f6dd65047762f924ecd367c17eabf8f" : {
                "balance" : "0x00",
                "code" : "0x",
                "nonce" : "0x00",
                "storage" : {
                    "0x00" : "0x01"
                }
            },
            "0xa94f5374fce5edbc8e2a8697c15331677e6ebf0b" : {
                "balance" : "0x6400000000",
                "code" : "0x",
                "nonce" : "0x00",
                "storage" : {
                }
            }
        },
        "sealEngine" : "NoProof"
    }
}